{
  "contractName": "Blockchain2022",
  "abi": [
    {
      "inputs": [],
      "stateMutability": "nonpayable",
      "type": "constructor"
    },
    {
      "anonymous": false,
      "inputs": [
        {
          "indexed": false,
          "internalType": "address",
          "name": "recipient",
          "type": "address"
        },
        {
          "indexed": false,
          "internalType": "uint256",
          "name": "amount",
          "type": "uint256"
        }
      ],
      "name": "LogWithdrawal",
      "type": "event"
    },
    {
      "anonymous": false,
      "inputs": [
        {
          "indexed": true,
          "internalType": "address",
          "name": "previousOwner",
          "type": "address"
        },
        {
          "indexed": true,
          "internalType": "address",
          "name": "newOwner",
          "type": "address"
        }
      ],
      "name": "OwnershipTransferred",
      "type": "event"
    },
    {
      "inputs": [],
      "name": "owner",
      "outputs": [
        {
          "internalType": "address",
          "name": "",
          "type": "address"
        }
      ],
      "stateMutability": "view",
      "type": "function",
      "constant": true
    },
    {
      "inputs": [],
      "name": "renounceOwnership",
      "outputs": [],
      "stateMutability": "nonpayable",
      "type": "function"
    },
    {
      "inputs": [
        {
          "internalType": "address",
          "name": "newOwner",
          "type": "address"
        }
      ],
      "name": "transferOwnership",
      "outputs": [],
      "stateMutability": "nonpayable",
      "type": "function"
    },
    {
      "stateMutability": "payable",
      "type": "receive",
      "payable": true
    },
    {
      "inputs": [],
      "name": "withdraw",
      "outputs": [],
      "stateMutability": "nonpayable",
      "type": "function"
    },
    {
      "inputs": [
        {
          "internalType": "address",
          "name": "recipient",
          "type": "address"
        },
        {
          "internalType": "uint256",
          "name": "amount",
          "type": "uint256"
        }
      ],
      "name": "withdrawTo",
      "outputs": [],
      "stateMutability": "nonpayable",
      "type": "function"
    },
    {
      "inputs": [],
      "name": "getBalance",
      "outputs": [
        {
          "internalType": "uint256",
          "name": "",
          "type": "uint256"
        }
      ],
      "stateMutability": "view",
      "type": "function",
      "constant": true
    },
    {
      "inputs": [],
      "name": "getOwner",
      "outputs": [
        {
          "internalType": "address",
          "name": "",
          "type": "address"
        }
      ],
      "stateMutability": "view",
      "type": "function",
      "constant": true
    }
  ],
  "bytecode": "0x60806040523480156200001157600080fd5b5062000032620000266200004960201b60201c565b6200005160201b60201c565b62000043336200011560201b60201c565b62000380565b600033905090565b60008060009054906101000a900473ffffffffffffffffffffffffffffffffffffffff169050816000806101000a81548173ffffffffffffffffffffffffffffffffffffffff021916908373ffffffffffffffffffffffffffffffffffffffff1602179055508173ffffffffffffffffffffffffffffffffffffffff168173ffffffffffffffffffffffffffffffffffffffff167f8be0079c531659141344cd1fd0a4f28419497f9722a3daafe3b4186f6b6457e060405160405180910390a35050565b62000125620001ab60201b60201c565b600073ffffffffffffffffffffffffffffffffffffffff168173ffffffffffffffffffffffffffffffffffffffff160362000197576040517f08c379a00000000000000000000000000000000000000000000000000000000081526004016200018e90620002ec565b60405180910390fd5b620001a8816200005160201b60201c565b50565b620001bb6200004960201b60201c565b73ffffffffffffffffffffffffffffffffffffffff16620001e16200023c60201b60201c565b73ffffffffffffffffffffffffffffffffffffffff16146200023a576040517f08c379a000000000000000000000000000000000000000000000000000000000815260040162000231906200035e565b60405180910390fd5b565b60008060009054906101000a900473ffffffffffffffffffffffffffffffffffffffff16905090565b600082825260208201905092915050565b7f4f776e61626c653a206e6577206f776e657220697320746865207a65726f206160008201527f6464726573730000000000000000000000000000000000000000000000000000602082015250565b6000620002d460268362000265565b9150620002e18262000276565b604082019050919050565b600060208201905081810360008301526200030781620002c5565b9050919050565b7f4f776e61626c653a2063616c6c6572206973206e6f7420746865206f776e6572600082015250565b60006200034660208362000265565b915062000353826200030e565b602082019050919050565b60006020820190508181036000830152620003798162000337565b9050919050565b61091880620003906000396000f3fe6080604052600436106100745760003560e01c8063715018a61161004e578063715018a6146100eb578063893d20e8146101025780638da5cb5b1461012d578063f2fde38b146101585761007b565b806312065fe014610080578063205c2878146100ab5780633ccfd60b146100d45761007b565b3661007b57005b600080fd5b34801561008c57600080fd5b50610095610181565b6040516100a2919061056b565b60405180910390f35b3480156100b757600080fd5b506100d260048036038101906100cd9190610615565b610189565b005b3480156100e057600080fd5b506100e9610258565b005b3480156100f757600080fd5b50610100610339565b005b34801561010e57600080fd5b5061011761034d565b6040516101249190610664565b60405180910390f35b34801561013957600080fd5b5061014261035c565b60405161014f9190610664565b60405180910390f35b34801561016457600080fd5b5061017f600480360381019061017a919061067f565b610385565b005b600047905090565b610191610408565b804710156101d4576040517f08c379a00000000000000000000000000000000000000000000000000000000081526004016101cb9061072f565b60405180910390fd5b8173ffffffffffffffffffffffffffffffffffffffff166108fc829081150290604051600060405180830381858888f1935050505015801561021a573d6000803e3d6000fd5b507fb4214c8c54fc7442f36d3682f59aebaf09358a4431835b30efb29d52cf9e1e91828260405161024c92919061074f565b60405180910390a15050565b610260610408565b600047116102a3576040517f08c379a000000000000000000000000000000000000000000000000000000000815260040161029a906107c4565b60405180910390fd5b60004790506102b061035c565b73ffffffffffffffffffffffffffffffffffffffff166108fc829081150290604051600060405180830381858888f193505050501580156102f5573d6000803e3d6000fd5b507fb4214c8c54fc7442f36d3682f59aebaf09358a4431835b30efb29d52cf9e1e9161031f61035c565b8260405161032e92919061074f565b60405180910390a150565b610341610408565b61034b6000610486565b565b600061035761035c565b905090565b60008060009054906101000a900473ffffffffffffffffffffffffffffffffffffffff16905090565b61038d610408565b600073ffffffffffffffffffffffffffffffffffffffff168173ffffffffffffffffffffffffffffffffffffffff16036103fc576040517f08c379a00000000000000000000000000000000000000000000000000000000081526004016103f390610856565b60405180910390fd5b61040581610486565b50565b61041061054a565b73ffffffffffffffffffffffffffffffffffffffff1661042e61035c565b73ffffffffffffffffffffffffffffffffffffffff1614610484576040517f08c379a000000000000000000000000000000000000000000000000000000000815260040161047b906108c2565b60405180910390fd5b565b60008060009054906101000a900473ffffffffffffffffffffffffffffffffffffffff169050816000806101000a81548173ffffffffffffffffffffffffffffffffffffffff021916908373ffffffffffffffffffffffffffffffffffffffff1602179055508173ffffffffffffffffffffffffffffffffffffffff168173ffffffffffffffffffffffffffffffffffffffff167f8be0079c531659141344cd1fd0a4f28419497f9722a3daafe3b4186f6b6457e060405160405180910390a35050565b600033905090565b6000819050919050565b61056581610552565b82525050565b6000602082019050610580600083018461055c565b92915050565b600080fd5b600073ffffffffffffffffffffffffffffffffffffffff82169050919050565b60006105b68261058b565b9050919050565b6105c6816105ab565b81146105d157600080fd5b50565b6000813590506105e3816105bd565b92915050565b6105f281610552565b81146105fd57600080fd5b50565b60008135905061060f816105e9565b92915050565b6000806040838503121561062c5761062b610586565b5b600061063a858286016105d4565b925050602061064b85828601610600565b9150509250929050565b61065e816105ab565b82525050565b60006020820190506106796000830184610655565b92915050565b60006020828403121561069557610694610586565b5b60006106a3848285016105d4565b91505092915050565b600082825260208201905092915050565b7f496e73756666696369656e742066756e647320746f206d61646520617420776960008201527f7468647261772e00000000000000000000000000000000000000000000000000602082015250565b60006107196027836106ac565b9150610724826106bd565b604082019050919050565b600060208201905081810360008301526107488161070c565b9050919050565b60006040820190506107646000830185610655565b610771602083018461055c565b9392505050565b7f4e6f2066756e647320617661696c61626c6520666f722077697468647261772e600082015250565b60006107ae6020836106ac565b91506107b982610778565b602082019050919050565b600060208201905081810360008301526107dd816107a1565b9050919050565b7f4f776e61626c653a206e6577206f776e657220697320746865207a65726f206160008201527f6464726573730000000000000000000000000000000000000000000000000000602082015250565b60006108406026836106ac565b915061084b826107e4565b604082019050919050565b6000602082019050818103600083015261086f81610833565b9050919050565b7f4f776e61626c653a2063616c6c6572206973206e6f7420746865206f776e6572600082015250565b60006108ac6020836106ac565b91506108b782610876565b602082019050919050565b600060208201905081810360008301526108db8161089f565b905091905056fea26469706673582212206d7ea4198dd8db0a0d483dbb25b5361f585fed8658673511cd19b78d189cebcc64736f6c63430008110033",
  "immutableReferences": {},
  "source": "// SPDX-License-Identifier: GPL-3.0\r\npragma solidity ^0.8.17;\r\n\r\nimport \"@openzeppelin/contracts/access/Ownable.sol\";\r\n\r\ncontract Blockchain2022 is Ownable {\r\n    constructor (){\r\n      transferOwnership(msg.sender);\r\n    }\r\n\r\n    event LogWithdrawal(address recipient, uint256 amount);\r\n\r\n\r\n    /*\r\n    --- ONLY OWNER SECTION ---\r\n    */\r\n\r\n    /**\r\n     * Function to withdraw all funds\r\n    */\r\n    function withdraw() external onlyOwner {\r\n        require(address(this).balance > 0, \"No funds available for withdraw.\");\r\n        uint256 balance = address(this).balance;\r\n        payable(owner()).transfer(balance);\r\n        emit LogWithdrawal(owner(), balance);\r\n    }\r\n\r\n    /**\r\n     * Function to withdraw specific amount of our funds\r\n    */\r\n    function withdrawTo(address recipient, uint256 amount) external onlyOwner {\r\n        require(address(this).balance >= amount, \"Insufficient funds to made at withdraw.\");\r\n        payable(recipient).transfer(amount);\r\n        emit LogWithdrawal(recipient, amount);\r\n    }\r\n\r\n    /*\r\n    --- PUBLIC SECTION ---\r\n    */\r\n\r\n    /**\r\n     * Function to view the current balance of the address\r\n    */\r\n    function getBalance() external view returns (uint256) {\r\n        return address(this).balance;\r\n    }\r\n\r\n    /**\r\n     * Function to view the owner address\r\n    */\r\n    function getOwner() external view returns (address) {\r\n        return owner();\r\n    }\r\n\r\n    /**\r\n     * Function to allow external addresses deposit funds into the contract\r\n    */\r\n     receive() external payable {\r\n        \r\n     }\r\n}",
  "sourcePath": "D:\\OneDrive - frvm.utn.edu.ar\\Universidad\\5to Ao\\Blockchain\\Blockchain-2022\\contracts\\Blockchain2022.sol",
  "compiler": {
    "name": "solc",
    "version": "0.8.17+commit.8df45f5f.Emscripten.clang"
  },
  "schemaVersion": "3.4.11",
  "updatedAt": "2023-02-11T18:45:41.702Z",
  "networkType": "ethereum",
  "devdoc": {
    "kind": "dev",
    "methods": {
      "owner()": {
        "details": "Returns the address of the current owner."
      },
      "renounceOwnership()": {
        "details": "Leaves the contract without owner. It will not be possible to call `onlyOwner` functions anymore. Can only be called by the current owner. NOTE: Renouncing ownership will leave the contract without an owner, thereby removing any functionality that is only available to the owner."
      },
      "transferOwnership(address)": {
        "details": "Transfers ownership of the contract to a new account (`newOwner`). Can only be called by the current owner."
      }
    },
    "version": 1
  },
  "userdoc": {
    "kind": "user",
    "methods": {
      "getBalance()": {
        "notice": "Function to view the current balance of the address"
      },
      "getOwner()": {
        "notice": "Function to view the owner address"
      },
      "withdraw()": {
        "notice": "Function to withdraw all funds"
      },
      "withdrawTo(address,uint256)": {
        "notice": "Function to withdraw specific amount of our funds"
      }
    },
    "version": 1
  }
}